{
  "contractName": "SimpleState",
  "abi": [
    {
      "constant": true,
      "inputs": [
        {
          "name": "",
          "type": "address"
        }
      ],
      "name": "status",
      "outputs": [
        {
          "name": "message",
          "type": "string"
        },
        {
          "name": "timestamp",
          "type": "uint256"
        }
      ],
      "payable": false,
      "stateMutability": "view",
      "type": "function"
    },
    {
      "constant": true,
      "inputs": [],
      "name": "globalState",
      "outputs": [
        {
          "name": "message",
          "type": "string"
        },
        {
          "name": "timestamp",
          "type": "uint256"
        }
      ],
      "payable": false,
      "stateMutability": "view",
      "type": "function"
    },
    {
      "inputs": [],
      "payable": false,
      "stateMutability": "nonpayable",
      "type": "constructor"
    },
    {
      "anonymous": false,
      "inputs": [
        {
          "indexed": true,
          "name": "account",
          "type": "address"
        },
        {
          "indexed": false,
          "name": "message",
          "type": "string"
        },
        {
          "indexed": false,
          "name": "timestamp",
          "type": "uint256"
        }
      ],
      "name": "StateChanged",
      "type": "event"
    },
    {
      "anonymous": false,
      "inputs": [
        {
          "indexed": true,
          "name": "account",
          "type": "address"
        },
        {
          "indexed": false,
          "name": "message",
          "type": "string"
        },
        {
          "indexed": false,
          "name": "timestamp",
          "type": "uint256"
        }
      ],
      "name": "StateGlogalChanged",
      "type": "event"
    },
    {
      "constant": false,
      "inputs": [
        {
          "name": "_message",
          "type": "string"
        },
        {
          "name": "_timestamp",
          "type": "uint256"
        }
      ],
      "name": "changeState",
      "outputs": [],
      "payable": false,
      "stateMutability": "nonpayable",
      "type": "function"
    },
    {
      "constant": false,
      "inputs": [
        {
          "name": "_message",
          "type": "string"
        },
        {
          "name": "_timestamp",
          "type": "uint256"
        },
        {
          "name": "_value",
          "type": "uint256"
        }
      ],
      "name": "changeGlobalState",
      "outputs": [],
      "payable": true,
      "stateMutability": "payable",
      "type": "function"
    }
  ],
  "bytecode": "0x608060405234801561001057600080fd5b506040805190810160405280601e81526020017f436166c3a920636f6e206c6563686520696e20706c617a61206d61796f7200008152506001600001908051906020019061005f92919061006f565b50607b6001800181905550610114565b828054600181600116156101000203166002900490600052602060002090601f016020900481019282601f106100b057805160ff19168380011785556100de565b828001600101855582156100de579182015b828111156100dd5782518255916020019190600101906100c2565b5b5090506100eb91906100ef565b5090565b61011191905b8082111561010d5760008160009055506001016100f5565b5090565b90565b6107b6806101236000396000f300608060405260043610610062576000357c0100000000000000000000000000000000000000000000000000000000900463ffffffff1680634c32668014610067578063645b8b1b146100d757806382babb391461019a578063e76c01e41461020d575b600080fd5b6100d5600480360381019080803590602001908201803590602001908080601f016020809104026020016040519081016040528093929190818152602001838380828437820191505050505050919291929080359060200190929190803590602001909291905050506102a4565b005b3480156100e357600080fd5b50610118600480360381019080803573ffffffffffffffffffffffffffffffffffffffff169060200190929190505050610443565b6040518080602001838152602001828103825284818151815260200191508051906020019080838360005b8381101561015e578082015181840152602081019050610143565b50505050905090810190601f16801561018b5780820380516001836020036101000a031916815260200191505b50935050505060405180910390f35b3480156101a657600080fd5b5061020b600480360381019080803590602001908201803590602001908080601f0160208091040260200160405190810160405280939291908181526020018383808284378201915050505050509192919290803590602001909291905050506104ff565b005b34801561021957600080fd5b5061022261063b565b6040518080602001838152602001828103825284818151815260200191508051906020019080838360005b8381101561026857808201518184015260208101905061024d565b50505050905090810190601f1680156102955780820380516001836020036101000a031916815260200191505b50935050505060405180910390f35b803410151515610342576040517f08c379a00000000000000000000000000000000000000000000000000000000081526004018080602001828103825260248152602001807f4d65632c207472616e73616374696f6e2076616c7565203c2076616c7565206981526020017f6e7075740000000000000000000000000000000000000000000000000000000081525060400191505060405180910390fd5b604080519081016040528084815260200183815250600160008201518160000190805190602001906103759291906106e5565b50602082015181600101559050503373ffffffffffffffffffffffffffffffffffffffff167fe5bfd06accc21ce7c81e133524dd97384b3b9de7517621ead68e9df7cff3924784846040518080602001838152602001828103825284818151815260200191508051906020019080838360005b838110156104035780820151818401526020810190506103e8565b50505050905090810190601f1680156104305780820380516001836020036101000a031916815260200191505b50935050505060405180910390a2505050565b6000602052806000526040600020600091509050806000018054600181600116156101000203166002900480601f0160208091040260200160405190810160405280929190818152602001828054600181600116156101000203166002900480156104ef5780601f106104c4576101008083540402835291602001916104ef565b820191906000526020600020905b8154815290600101906020018083116104d257829003601f168201915b5050505050908060010154905082565b6040805190810160405280838152602001828152506000803373ffffffffffffffffffffffffffffffffffffffff1673ffffffffffffffffffffffffffffffffffffffff168152602001908152602001600020600082015181600001908051906020019061056e9291906106e5565b50602082015181600101559050503373ffffffffffffffffffffffffffffffffffffffff167fdb60c904841f8d76f418c8ecad3f174120f104ec4e5daf37d4db07a2b6e1de2083836040518080602001838152602001828103825284818151815260200191508051906020019080838360005b838110156105fc5780820151818401526020810190506105e1565b50505050905090810190601f1680156106295780820380516001836020036101000a031916815260200191505b50935050505060405180910390a25050565b6001806000018054600181600116156101000203166002900480601f0160208091040260200160405190810160405280929190818152602001828054600181600116156101000203166002900480156106d55780601f106106aa576101008083540402835291602001916106d5565b820191906000526020600020905b8154815290600101906020018083116106b857829003601f168201915b5050505050908060010154905082565b828054600181600116156101000203166002900490600052602060002090601f016020900481019282601f1061072657805160ff1916838001178555610754565b82800160010185558215610754579182015b82811115610753578251825591602001919060010190610738565b5b5090506107619190610765565b5090565b61078791905b8082111561078357600081600090555060010161076b565b5090565b905600a165627a7a7230582056fad0c4b98f0eeb81bfb4f61b42344e8b7128c6d82c8966a7ce1f635d5d4f960029",
  "source": "pragma solidity ^0.4.19;\n\ncontract SimpleState {\n\n  struct State {\n    string message;\n    uint timestamp;\n  }\n\n  mapping(address => State) public status;\n\n  State public globalState;\n\n  event StateChanged(address indexed account, string message, uint timestamp);\n  event StateGlogalChanged(address indexed account, string message, uint timestamp);\n\n  constructor() public{\n    globalState.message = \"Café con leche in plaza mayor\";\n    globalState.timestamp = 123;\n  }\n\n  function changeState(string _message, uint _timestamp) public{\n    status[msg.sender] = State({message: _message, timestamp: _timestamp});\n\n    emit StateChanged(msg.sender, _message, _timestamp);\n  }\n\n  function changeGlobalState(string _message, uint _timestamp, uint _value) public payable{\n    require(msg.value >= _value, \"Mec, transaction value < value input\");\n\n    globalState = State({message: _message, timestamp: _timestamp});\n\n    emit StateGlogalChanged(msg.sender, _message, _timestamp);\n  }\n}",
  "sourcePath": "/Users/victor.munoz.local/Documents/Desarrollo/Babel/Iniciativas/Blockchain/hackathon/examples/state/contracts/SimpleState.sol",
  "compiler": {
    "name": "solc",
    "version": "0.4.24+commit.e67f0147.Emscripten.clang"
  },
  "schemaVersion": "2.0.1",
  "updatedAt": "2018-11-12T10:56:01.500Z"
}