{
  "contractName": "SimpleHash",
  "abi": [
    {
      "inputs": [],
      "payable": false,
      "stateMutability": "nonpayable",
      "type": "constructor"
    },
    {
      "anonymous": false,
      "inputs": [
        {
          "indexed": false,
          "name": "newHash",
          "type": "string"
        }
      ],
      "name": "HashUpdated",
      "type": "event"
    },
    {
      "constant": false,
      "inputs": [
        {
          "name": "x",
          "type": "string"
        }
      ],
      "name": "sendHash",
      "outputs": [],
      "payable": false,
      "stateMutability": "nonpayable",
      "type": "function"
    },
    {
      "constant": true,
      "inputs": [],
      "name": "getHash",
      "outputs": [
        {
          "name": "x",
          "type": "string"
        }
      ],
      "payable": false,
      "stateMutability": "view",
      "type": "function"
    }
  ],
  "bytecode": "0x608060405234801561001057600080fd5b50606060405190810160405280602e81526020017f516d59554a6d6842597272674b424a70697134584a5751675047546d5244654181526020017f7441654c6d387873776b354e764600000000000000000000000000000000000081525060009080519060200190610083929190610089565b5061012e565b828054600181600116156101000203166002900490600052602060002090601f016020900481019282601f106100ca57805160ff19168380011785556100f8565b828001600101855582156100f8579182015b828111156100f75782518255916020019190600101906100dc565b5b5090506101059190610109565b5090565b61012b91905b8082111561012757600081600090555060010161010f565b5090565b90565b6103738061013d6000396000f30060806040526004361061004c576000357c0100000000000000000000000000000000000000000000000000000000900463ffffffff168063d13319c414610051578063dfb29935146100e1575b600080fd5b34801561005d57600080fd5b5061006661014a565b6040518080602001828103825283818151815260200191508051906020019080838360005b838110156100a657808201518184015260208101905061008b565b50505050905090810190601f1680156100d35780820380516001836020036101000a031916815260200191505b509250505060405180910390f35b3480156100ed57600080fd5b50610148600480360381019080803590602001908201803590602001908080601f01602080910402602001604051908101604052809392919081815260200183838082843782019150505050505091929192905050506101ec565b005b606060008054600181600116156101000203166002900480601f0160208091040260200160405190810160405280929190818152602001828054600181600116156101000203166002900480156101e25780601f106101b7576101008083540402835291602001916101e2565b820191906000526020600020905b8154815290600101906020018083116101c557829003601f168201915b5050505050905090565b80600090805190602001906102029291906102a2565b507ffe3abdff4c9a2f99a80d3caf1a1efcafc3411637ef146635621324717c9cf2e2816040518080602001828103825283818151815260200191508051906020019080838360005b8381101561026557808201518184015260208101905061024a565b50505050905090810190601f1680156102925780820380516001836020036101000a031916815260200191505b509250505060405180910390a150565b828054600181600116156101000203166002900490600052602060002090601f016020900481019282601f106102e357805160ff1916838001178555610311565b82800160010185558215610311579182015b828111156103105782518255916020019190600101906102f5565b5b50905061031e9190610322565b5090565b61034491905b80821115610340576000816000905550600101610328565b5090565b905600a165627a7a723058202f1aa63a41edd72dfd51a097e11651c1f7010c4f9db3c1cb01cfe855bec6ecfa0029",
  "source": "pragma solidity ^0.4.19;\n\ncontract SimpleHash {\n  string ipfsHash;\n\n  event HashUpdated(string newHash);\n\n  constructor(){\n    ipfsHash = \"QmYUJmhBYrrgKBJpiq4XJWQgPGTmRDeAtAeLm8xswk5NvF\";\n  }\n\n  function sendHash(string x) public {\n    ipfsHash = x;\n\n    emit HashUpdated(x);\n  }\n\n  function getHash() public view returns (string x) {\n    return ipfsHash;\n  }\n}",
  "sourcePath": "/Users/victor.munoz.local/Documents/Desarrollo/Babel/Iniciativas/Blockchain/hackathon/examples/ipfs/contracts/SimpleHash.sol",
  "compiler": {
    "name": "solc",
    "version": "0.4.24+commit.e67f0147.Emscripten.clang"
  },
  "schemaVersion": "2.0.1",
  "updatedAt": "2018-11-13T12:06:33.809Z"
}